:100000000C942A000C9434000C9434000C943400AA
:100010000C9434000C9434000C9434000C94340090
:100020000C9434000C9434000C9434000C94340080
:100030000C9434000C9434000C9434000C94340070
:100040000C9434000C9434000C9434000C94340060
:100050000C94340011241FBECFE5D8E0DEBFCDBF25
:100060000E943F000C946E000C94000080E48DB957
:10007000BE9A08958FB9779BFECF8FB108950E94E5
:10008000360084B3876884BB12E0D4E0C1E082E329
:100090000E943A00823369F018F4813331F014C0C1
:1000A000833359F0873369F00FC085B38C2785BB44
:1000B0000BC085B3812785BB07C085B38D2785BB62
:1000C00003C085B3805885BB2FEF81EE94E02150AB
:1000D00080409040E1F700C00000D9CFF894FFCFF6
:00000001FF
