S01200005350495F4D61737465722E737265635B
S11300000C942A000C9434000C9434000C943400A6
S11300100C9434000C9434000C9434000C9434008C
S11300200C9434000C9434000C9434000C9434007C
S11300300C9434000C9434000C9434000C9434006C
S11300400C9434000C9434000C9434000C9434005C
S11300500C94340011241FBECFE5D8E0DEBFCDBF21
S11300600E9436000C946E000C9400000E94540010
S11300700E946300A8980E946A002FEF36E741E0CF
S1130080215030404040E1F700C0000099270E9411
S11300905E00A89A8FEF91EE24E0815090402040BA
S11300A0E1F700C00000E6CF87B3806A87BB84B362
S11300B0856084BB8DB181658DB908958FB9779BB7
S11300C0FECF8FB1089587E689B988E18AB986E8B9
S11300D080BD08955F9BFECF8CB10895F894FFCF47
S9030000FC
